{
  "contractName": "ServiceDirectory",
  "abi": [
    {
      "inputs": [],
      "stateMutability": "nonpayable",
      "type": "constructor"
    },
    {
      "anonymous": false,
      "inputs": [
        {
          "indexed": false,
          "internalType": "address",
          "name": "owner",
          "type": "address"
        },
        {
          "indexed": false,
          "internalType": "string",
          "name": "topic",
          "type": "string"
        },
        {
          "indexed": false,
          "internalType": "string",
          "name": "endpoint",
          "type": "string"
        }
      ],
      "name": "ServiceAdded",
      "type": "event"
    },
    {
      "anonymous": false,
      "inputs": [
        {
          "indexed": false,
          "internalType": "address",
          "name": "owner",
          "type": "address"
        },
        {
          "indexed": false,
          "internalType": "string",
          "name": "topic",
          "type": "string"
        },
        {
          "indexed": false,
          "internalType": "string[]",
          "name": "endpoint",
          "type": "string[]"
        }
      ],
      "name": "ServiceDeleted",
      "type": "event"
    },
    {
      "inputs": [
        {
          "internalType": "string",
          "name": "",
          "type": "string"
        },
        {
          "internalType": "uint256",
          "name": "",
          "type": "uint256"
        }
      ],
      "name": "topicMappings",
      "outputs": [
        {
          "internalType": "address",
          "name": "owner",
          "type": "address"
        },
        {
          "internalType": "string",
          "name": "endpoint",
          "type": "string"
        }
      ],
      "stateMutability": "view",
      "type": "function",
      "constant": true
    },
    {
      "inputs": [
        {
          "internalType": "string",
          "name": "topic",
          "type": "string"
        },
        {
          "internalType": "string",
          "name": "endpoint",
          "type": "string"
        }
      ],
      "name": "addService",
      "outputs": [],
      "stateMutability": "nonpayable",
      "type": "function"
    },
    {
      "inputs": [
        {
          "internalType": "string[]",
          "name": "topics",
          "type": "string[]"
        },
        {
          "internalType": "string",
          "name": "endpoint",
          "type": "string"
        }
      ],
      "name": "addServices",
      "outputs": [],
      "stateMutability": "nonpayable",
      "type": "function"
    },
    {
      "inputs": [
        {
          "internalType": "string",
          "name": "topic",
          "type": "string"
        }
      ],
      "name": "getServiceEndpoints",
      "outputs": [
        {
          "internalType": "string[]",
          "name": "",
          "type": "string[]"
        }
      ],
      "stateMutability": "view",
      "type": "function",
      "constant": true
    },
    {
      "inputs": [
        {
          "internalType": "string[]",
          "name": "topicList",
          "type": "string[]"
        }
      ],
      "name": "getServiceEndpointsTopics",
      "outputs": [
        {
          "internalType": "string[][]",
          "name": "",
          "type": "string[][]"
        }
      ],
      "stateMutability": "view",
      "type": "function",
      "constant": true
    },
    {
      "inputs": [
        {
          "internalType": "string",
          "name": "topic",
          "type": "string"
        }
      ],
      "name": "removeService",
      "outputs": [],
      "stateMutability": "nonpayable",
      "type": "function"
    },
    {
      "inputs": [
        {
          "internalType": "string[]",
          "name": "topics",
          "type": "string[]"
        }
      ],
      "name": "removeServices",
      "outputs": [],
      "stateMutability": "nonpayable",
      "type": "function"
    }
  ],
  "bytecode": "0x608060405234801561001057600080fd5b50611a01806100206000396000f3fe608060405234801561001057600080fd5b506004361061007d5760003560e01c806390f361061161005b57806390f36106146100fe578063b5d5e0951461012f578063d520edda1461014b578063f51acaea146101675761007d565b80633598fd0a146100825780634af216e6146100b25780638b0cc5d1146100e2575b600080fd5b61009c60048036038101906100979190611111565b610183565b6040516100a9919061160c565b60405180910390f35b6100cc60048036038101906100c791906111cb565b6102c3565b6040516100d9919061162e565b60405180910390f35b6100fc60048036038101906100f79190611210565b6104d5565b005b61011860048036038101906101139190611285565b610638565b6040516101269291906115dc565b60405180910390f35b61014960048036038101906101449190611156565b610737565b005b61016560048036038101906101609190611111565b6107b4565b005b610181600480360381019061017c91906111cb565b61082d565b005b606060008383905067ffffffffffffffff8111156101ca577f4e487b7100000000000000000000000000000000000000000000000000000000600052604160045260246000fd5b6040519080825280602002602001820160405280156101fd57816020015b60608152602001906001900390816101e85790505b50905060005b848490508110156102b85761026185858381811061024a577f4e487b7100000000000000000000000000000000000000000000000000000000600052603260045260246000fd5b905060200281019061025c9190611650565b6102c3565b82828151811061029a577f4e487b7100000000000000000000000000000000000000000000000000000000600052603260045260246000fd5b602002602001018190525080806102b0906118cd565b915050610203565b508091505092915050565b606060008084846040516102d8929190611533565b908152602001604051809103902090506000818054905067ffffffffffffffff81111561032e577f4e487b7100000000000000000000000000000000000000000000000000000000600052604160045260246000fd5b60405190808252806020026020018201604052801561036157816020015b606081526020019060019003908161034c5790505b5090506000808686604051610377929190611533565b90815260200160405180910390208054905011156104ca5760005b82805490508110156104c8578281815481106103d7577f4e487b7100000000000000000000000000000000000000000000000000000000600052603260045260246000fd5b906000526020600020906002020160010180546103f39061186a565b80601f016020809104026020016040519081016040528092919081815260200182805461041f9061186a565b801561046c5780601f106104415761010080835404028352916020019161046c565b820191906000526020600020905b81548152906001019060200180831161044f57829003601f168201915b50505050508282815181106104aa577f4e487b7100000000000000000000000000000000000000000000000000000000600052603260045260246000fd5b602002602001018190525080806104c0906118cd565b915050610392565b505b809250505092915050565b600084846040516104e7929190611533565b908152602001604051809103902060405180604001604052803373ffffffffffffffffffffffffffffffffffffffff16815260200184848080601f016020809104026020016040519081016040528093929190818152602001838380828437600081840152601f19601f82011690508083019250505050505050815250908060018154018082558091505060019003906000526020600020906002020160009091909190915060008201518160000160006101000a81548173ffffffffffffffffffffffffffffffffffffffff021916908373ffffffffffffffffffffffffffffffffffffffff16021790555060208201518160010190805190602001906105f0929190610e90565b5050507f4ac4215cd7fc7d37c65a4891e3239363ffde80c44601246161058d2ef29c528f338585858560405161062a959493929190611593565b60405180910390a150505050565b600082805160208101820180518482526020830160208501208183528095505050505050818154811061066a57600080fd5b9060005260206000209060020201600091509150508060000160009054906101000a900473ffffffffffffffffffffffffffffffffffffffff16908060010180546106b49061186a565b80601f01602080910402602001604051908101604052809291908181526020018280546106e09061186a565b801561072d5780601f106107025761010080835404028352916020019161072d565b820191906000526020600020905b81548152906001019060200180831161071057829003601f168201915b5050505050905082565b60005b848490508110156107ad5761079a858583818110610781577f4e487b7100000000000000000000000000000000000000000000000000000000600052603260045260246000fd5b90506020028101906107939190611650565b85856104d5565b80806107a5906118cd565b91505061073a565b5050505050565b60005b82829050811015610828576108158383838181106107fe577f4e487b7100000000000000000000000000000000000000000000000000000000600052603260045260246000fd5b90506020028101906108109190611650565b61082d565b8080610820906118cd565b9150506107b7565b505050565b6000808383604051610840929190611533565b908152602001604051809103902090506000818054905067ffffffffffffffff811115610896577f4e487b7100000000000000000000000000000000000000000000000000000000600052604160045260246000fd5b6040519080825280602002602001820160405280156108c957816020015b60608152602001906001900390816108b45790505b50905060005b8280549050811015610c99573373ffffffffffffffffffffffffffffffffffffffff1683828154811061092b577f4e487b7100000000000000000000000000000000000000000000000000000000600052603260045260246000fd5b906000526020600020906002020160000160009054906101000a900473ffffffffffffffffffffffffffffffffffffffff1673ffffffffffffffffffffffffffffffffffffffff161415610c86578281815481106109b2577f4e487b7100000000000000000000000000000000000000000000000000000000600052603260045260246000fd5b906000526020600020906002020160010180546109ce9061186a565b80601f01602080910402602001604051908101604052809291908181526020018280546109fa9061186a565b8015610a475780601f10610a1c57610100808354040283529160200191610a47565b820191906000526020600020905b815481529060010190602001808311610a2a57829003601f168201915b5050505050828281518110610a85577f4e487b7100000000000000000000000000000000000000000000000000000000600052603260045260246000fd5b6020026020010181905250610a9a8382610cdd565b60008380549050118015610abd575060018380549050610aba91906117b8565b81145b8015610b5e57503373ffffffffffffffffffffffffffffffffffffffff16838281548110610b14577f4e487b7100000000000000000000000000000000000000000000000000000000600052603260045260246000fd5b906000526020600020906002020160000160009054906101000a900473ffffffffffffffffffffffffffffffffffffffff1673ffffffffffffffffffffffffffffffffffffffff16145b15610c8557828181548110610b9c577f4e487b7100000000000000000000000000000000000000000000000000000000600052603260045260246000fd5b90600052602060002090600202016001018054610bb89061186a565b80601f0160208091040260200160405190810160405280929190818152602001828054610be49061186a565b8015610c315780601f10610c0657610100808354040283529160200191610c31565b820191906000526020600020905b815481529060010190602001808311610c1457829003601f168201915b5050505050828281518110610c6f577f4e487b7100000000000000000000000000000000000000000000000000000000600052603260045260246000fd5b6020026020010181905250610c848382610cdd565b5b5b8080610c91906118cd565b9150506108cf565b507f496492f973f98cd647c7368605c6a68754b4d8ab61edfeb920a31fdf649518e233858584604051610ccf949392919061154c565b60405180910390a150505050565b8160018380549050610cef91906117b8565b81548110610d26577f4e487b7100000000000000000000000000000000000000000000000000000000600052603260045260246000fd5b9060005260206000209060020201828281548110610d6d577f4e487b7100000000000000000000000000000000000000000000000000000000600052603260045260246000fd5b90600052602060002090600202016000820160009054906101000a900473ffffffffffffffffffffffffffffffffffffffff168160000160006101000a81548173ffffffffffffffffffffffffffffffffffffffff021916908373ffffffffffffffffffffffffffffffffffffffff1602179055506001820181600101908054610df69061186a565b610e01929190610f16565b5090505081805480610e3c577f4e487b7100000000000000000000000000000000000000000000000000000000600052603160045260246000fd5b6001900381819060005260206000209060020201600080820160006101000a81549073ffffffffffffffffffffffffffffffffffffffff0219169055600182016000610e889190610fa3565b505090555050565b828054610e9c9061186a565b90600052602060002090601f016020900481019282610ebe5760008555610f05565b82601f10610ed757805160ff1916838001178555610f05565b82800160010185558215610f05579182015b82811115610f04578251825591602001919060010190610ee9565b5b509050610f129190610fe3565b5090565b828054610f229061186a565b90600052602060002090601f016020900481019282610f445760008555610f92565b82601f10610f555780548555610f92565b82800160010185558215610f9257600052602060002091601f016020900482015b82811115610f91578254825591600101919060010190610f76565b5b509050610f9f9190610fe3565b5090565b508054610faf9061186a565b6000825580601f10610fc15750610fe0565b601f016020900490600052602060002090810190610fdf9190610fe3565b5b50565b5b80821115610ffc576000816000905550600101610fe4565b5090565b600061101361100e846116cc565b6116a7565b90508281526020810184848401111561102b57600080fd5b611036848285611828565b509392505050565b60008083601f84011261105057600080fd5b8235905067ffffffffffffffff81111561106957600080fd5b60208301915083602082028301111561108157600080fd5b9250929050565b60008083601f84011261109a57600080fd5b8235905067ffffffffffffffff8111156110b357600080fd5b6020830191508360018202830111156110cb57600080fd5b9250929050565b600082601f8301126110e357600080fd5b81356110f3848260208601611000565b91505092915050565b60008135905061110b816119b4565b92915050565b6000806020838503121561112457600080fd5b600083013567ffffffffffffffff81111561113e57600080fd5b61114a8582860161103e565b92509250509250929050565b6000806000806040858703121561116c57600080fd5b600085013567ffffffffffffffff81111561118657600080fd5b6111928782880161103e565b9450945050602085013567ffffffffffffffff8111156111b157600080fd5b6111bd87828801611088565b925092505092959194509250565b600080602083850312156111de57600080fd5b600083013567ffffffffffffffff8111156111f857600080fd5b61120485828601611088565b92509250509250929050565b6000806000806040858703121561122657600080fd5b600085013567ffffffffffffffff81111561124057600080fd5b61124c87828801611088565b9450945050602085013567ffffffffffffffff81111561126b57600080fd5b61127787828801611088565b925092505092959194509250565b6000806040838503121561129857600080fd5b600083013567ffffffffffffffff8111156112b257600080fd5b6112be858286016110d2565b92505060206112cf858286016110fc565b9150509250929050565b60006112e58383611385565b905092915050565b60006112f983836114c1565b905092915050565b61130a816117ec565b82525050565b600061131b8261171d565b6113258185611758565b935083602082028501611337856116fd565b8060005b85811015611373578484038952815161135485826112d9565b945061135f8361173e565b925060208a0199505060018101905061133b565b50829750879550505050505092915050565b600061139082611728565b61139a8185611769565b9350836020820285016113ac8561170d565b8060005b858110156113e857848403895281516113c985826112ed565b94506113d48361174b565b925060208a019950506001810190506113b0565b50829750879550505050505092915050565b600061140582611728565b61140f818561177a565b9350836020820285016114218561170d565b8060005b8581101561145d578484038952815161143e85826112ed565b94506114498361174b565b925060208a01995050600181019050611425565b50829750879550505050505092915050565b600061147b838561179c565b9350611488838584611828565b611491836119a3565b840190509392505050565b60006114a883856117ad565b93506114b5838584611828565b82840190509392505050565b60006114cc82611733565b6114d6818561178b565b93506114e6818560208601611837565b6114ef816119a3565b840191505092915050565b600061150582611733565b61150f818561179c565b935061151f818560208601611837565b611528816119a3565b840191505092915050565b600061154082848661149c565b91508190509392505050565b60006060820190506115616000830187611301565b818103602083015261157481858761146f565b9050818103604083015261158881846113fa565b905095945050505050565b60006060820190506115a86000830188611301565b81810360208301526115bb81868861146f565b905081810360408301526115d081848661146f565b90509695505050505050565b60006040820190506115f16000830185611301565b818103602083015261160381846114fa565b90509392505050565b600060208201905081810360008301526116268184611310565b905092915050565b6000602082019050818103600083015261164881846113fa565b905092915050565b6000808335600160200384360303811261166957600080fd5b80840192508235915067ffffffffffffffff82111561168757600080fd5b60208301925060018202360383131561169f57600080fd5b509250929050565b60006116b16116c2565b90506116bd828261189c565b919050565b6000604051905090565b600067ffffffffffffffff8211156116e7576116e6611974565b5b6116f0826119a3565b9050602081019050919050565b6000819050602082019050919050565b6000819050602082019050919050565b600081519050919050565b600081519050919050565b600081519050919050565b6000602082019050919050565b6000602082019050919050565b600082825260208201905092915050565b600082825260208201905092915050565b600082825260208201905092915050565b600082825260208201905092915050565b600082825260208201905092915050565b600081905092915050565b60006117c38261181e565b91506117ce8361181e565b9250828210156117e1576117e0611916565b5b828203905092915050565b60006117f7826117fe565b9050919050565b600073ffffffffffffffffffffffffffffffffffffffff82169050919050565b6000819050919050565b82818337600083830152505050565b60005b8381101561185557808201518184015260208101905061183a565b83811115611864576000848401525b50505050565b6000600282049050600182168061188257607f821691505b6020821081141561189657611895611945565b5b50919050565b6118a5826119a3565b810181811067ffffffffffffffff821117156118c4576118c3611974565b5b80604052505050565b60006118d88261181e565b91507fffffffffffffffffffffffffffffffffffffffffffffffffffffffffffffffff82141561190b5761190a611916565b5b600182019050919050565b7f4e487b7100000000000000000000000000000000000000000000000000000000600052601160045260246000fd5b7f4e487b7100000000000000000000000000000000000000000000000000000000600052602260045260246000fd5b7f4e487b7100000000000000000000000000000000000000000000000000000000600052604160045260246000fd5b6000601f19601f8301169050919050565b6119bd8161181e565b81146119c857600080fd5b5056fea264697066735822122000b484117b7f8b3c0bdefd39684439dcab1b2f09d461f8cdf1ca9cc92b22598c64736f6c63430008020033",
  "immutableReferences": {},
  "source": "// Copyright (c) 2016 - for information on the respective copyright owner see the NOTICE file and/or the repository https://github.com/boschresearch/open-eot-agents.\n//\n// SPDX-License-Identifier: Apache-2.0\n\npragma solidity ^0.8.2;\n\ncontract ServiceDirectory {\n    struct Service {\n        address owner;\n        string endpoint;\n    }\n\n    mapping(string => Service[]) public topicMappings;\n\n    event ServiceAdded(address owner, string topic, string endpoint);\n    event ServiceDeleted(address owner, string topic, string[] endpoint);\n\n    constructor() {}\n\n    function addService(string calldata topic, string calldata endpoint)\n        public\n    {\n        topicMappings[topic].push(Service(msg.sender, endpoint));\n        emit ServiceAdded(msg.sender, topic, endpoint);\n    }\n\n    function addServices(string[] calldata topics, string calldata endpoint)\n        public\n    {\n        for (uint256 index = 0; index < topics.length; index++) {\n           addService(topics[index], endpoint); \n        }\n    } \n\n    function getServiceEndpoints(string calldata topic)\n        public\n        view\n        returns (string[] memory)\n    {\n        Service[] storage services = topicMappings[topic];\n        string[] memory endpoints = new string[](services.length);\n        if (topicMappings[topic].length > 0) {\n            for (uint256 ii = 0; ii < services.length; ii++) {\n                endpoints[ii] = services[ii].endpoint;\n            }\n        }\n        return endpoints;\n    }\n\n    function getServiceEndpointsTopics(string[] calldata topicList)\n        public\n        view\n        returns (string[][] memory)\n    {\n        string[][] memory endpoints = new string[][](topicList.length);\n        for (uint256 index = 0; index < topicList.length; index++) {\n            endpoints[index] = getServiceEndpoints(topicList[index]);\n        }\n        return endpoints;\n    }\n\n    function removeService(string calldata topic) public {\n        Service[] storage services = topicMappings[topic];\n        string[] memory endpoints = new string[](services.length);\n        for (uint256 ii = 0; ii < services.length; ii++) {\n            if (services[ii].owner == msg.sender) {\n                endpoints[ii] = services[ii].endpoint;\n                removeServiceFromArray(services, ii);\n                if (services.length > 0 && ii == services.length-1 && services[ii].owner == msg.sender) {\n                    endpoints[ii] = services[ii].endpoint;\n                    removeServiceFromArray(services, ii);\n                }\n            }\n        }\n        emit ServiceDeleted(msg.sender, topic, endpoints);\n    }\n\n    function removeServices(string[] calldata topics) public {\n        for (uint256 index = 0; index < topics.length; index++) {\n            removeService(topics[index]);\n        }\n    }\n\n    function removeServiceFromArray(Service[] storage services, uint256 index)\n        private\n    {\n        //setting last element to given index\n        services[index] = services[services.length - 1];\n        //removing last element\n        services.pop();\n    }\n}\n",
  "sourcePath": "/mnt/dev/aea/aea-1.0.0/Open-EoT-Agents/service-directory/contracts/ServiceDirectory.sol",
  "compiler": {
    "name": "solc",
    "version": "0.8.2+commit.661d1103.Emscripten.clang"
  },
  "schemaVersion": "3.3.4",
  "updatedAt": "2021-06-01T11:23:27.616Z",
  "networkType": "ethereum",
  "devdoc": {
    "kind": "dev",
    "methods": {},
    "version": 1
  },
  "userdoc": {
    "kind": "user",
    "methods": {},
    "version": 1
  }
}